{
    "_format": "hh-sol-artifact-1",
    "contractName": "Transactions",
    "sourceName": "contracts/transaction.sol",
    "abi": [
        {
            "anonymous": false,
            "inputs": [
                {
                    "indexed": false,
                    "internalType": "address",
                    "name": "_from",
                    "type": "address"
                },
                {
                    "indexed": false,
                    "internalType": "address",
                    "name": "_to",
                    "type": "address"
                },
                {
                    "indexed": false,
                    "internalType": "uint256",
                    "name": "amount",
                    "type": "uint256"
                },
                {
                    "indexed": false,
                    "internalType": "string",
                    "name": "message",
                    "type": "string"
                },
                {
                    "indexed": false,
                    "internalType": "uint256",
                    "name": "timestamp",
                    "type": "uint256"
                },
                {
                    "indexed": false,
                    "internalType": "string",
                    "name": "keyword",
                    "type": "string"
                }
            ],
            "name": "Transfer",
            "type": "event"
        },
        {
            "inputs": [
                {
                    "internalType": "address payable",
                    "name": "_from",
                    "type": "address"
                },
                {
                    "internalType": "address payable",
                    "name": "_to",
                    "type": "address"
                },
                {
                    "internalType": "uint256",
                    "name": "_amount",
                    "type": "uint256"
                },
                {
                    "internalType": "string",
                    "name": "_message",
                    "type": "string"
                },
                {
                    "internalType": "string",
                    "name": "keyword",
                    "type": "string"
                }
            ],
            "name": "addToBlockChain",
            "outputs": [],
            "stateMutability": "nonpayable",
            "type": "function"
        },
        {
            "inputs": [],
            "name": "getAllTransactions",
            "outputs": [
                {
                    "components": [
                        {
                            "internalType": "address",
                            "name": "from",
                            "type": "address"
                        },
                        {
                            "internalType": "address",
                            "name": "_to",
                            "type": "address"
                        },
                        {
                            "internalType": "uint256",
                            "name": "_amount",
                            "type": "uint256"
                        },
                        {
                            "internalType": "string",
                            "name": "_message",
                            "type": "string"
                        },
                        {
                            "internalType": "uint256",
                            "name": "_timestamp",
                            "type": "uint256"
                        },
                        {
                            "internalType": "string",
                            "name": "keyword",
                            "type": "string"
                        }
                    ],
                    "internalType": "struct Transactions.TransferStruct[]",
                    "name": "",
                    "type": "tuple[]"
                }
            ],
            "stateMutability": "view",
            "type": "function"
        },
        {
            "inputs": [],
            "name": "getTransactionCount",
            "outputs": [
                {
                    "internalType": "uint256",
                    "name": "",
                    "type": "uint256"
                }
            ],
            "stateMutability": "view",
            "type": "function"
        }
    ],
    "bytecode": "0x608060405234801561001057600080fd5b50610c4d806100206000396000f3fe608060405234801561001057600080fd5b50600436106100415760003560e01c8063155e5c9b1461004657806327506f53146100625780632e7700f014610080575b600080fd5b610060600480360381019061005b919061061c565b61009e565b005b61006a61029b565b60405161007791906108f9565b60405180910390f35b6100886104de565b604051610095919061091b565b60405180910390f35b848073ffffffffffffffffffffffffffffffffffffffff163373ffffffffffffffffffffffffffffffffffffffff16146100d757600080fd5b60016000808282546100e991906109fd565b9250508190555060016040518060c001604052808873ffffffffffffffffffffffffffffffffffffffff1681526020018773ffffffffffffffffffffffffffffffffffffffff16815260200186815260200185815260200142815260200184815250908060018154018082558091505060019003906000526020600020906006020160009091909190915060008201518160000160006101000a81548173ffffffffffffffffffffffffffffffffffffffff021916908373ffffffffffffffffffffffffffffffffffffffff16021790555060208201518160010160006101000a81548173ffffffffffffffffffffffffffffffffffffffff021916908373ffffffffffffffffffffffffffffffffffffffff1602179055506040820151816002015560608201518160030190805190602001906102289291906104e7565b506080820151816004015560a082015181600501908051906020019061024f9291906104e7565b5050507f416cfa4330a4565f45c2fd2dd4826a83a37443aba2ce6f79477c7355afac35fa86868686428760405161028b9695949392919061088a565b60405180910390a1505050505050565b60606001805480602002602001604051908101604052809291908181526020016000905b828210156104d557838290600052602060002090600602016040518060c00160405290816000820160009054906101000a900473ffffffffffffffffffffffffffffffffffffffff1673ffffffffffffffffffffffffffffffffffffffff1673ffffffffffffffffffffffffffffffffffffffff1681526020016001820160009054906101000a900473ffffffffffffffffffffffffffffffffffffffff1673ffffffffffffffffffffffffffffffffffffffff1673ffffffffffffffffffffffffffffffffffffffff168152602001600282015481526020016003820180546103a890610b19565b80601f01602080910402602001604051908101604052809291908181526020018280546103d490610b19565b80156104215780601f106103f657610100808354040283529160200191610421565b820191906000526020600020905b81548152906001019060200180831161040457829003601f168201915b505050505081526020016004820154815260200160058201805461044490610b19565b80601f016020809104026020016040519081016040528092919081815260200182805461047090610b19565b80156104bd5780601f10610492576101008083540402835291602001916104bd565b820191906000526020600020905b8154815290600101906020018083116104a057829003601f168201915b505050505081525050815260200190600101906102bf565b50505050905090565b60008054905090565b8280546104f390610b19565b90600052602060002090601f016020900481019282610515576000855561055c565b82601f1061052e57805160ff191683800117855561055c565b8280016001018555821561055c579182015b8281111561055b578251825591602001919060010190610540565b5b509050610569919061056d565b5090565b5b8082111561058657600081600090555060010161056e565b5090565b600061059d61059884610967565b610936565b9050828152602081018484840111156105b557600080fd5b6105c0848285610ad7565b509392505050565b6000813590506105d781610be9565b92915050565b600082601f8301126105ee57600080fd5b81356105fe84826020860161058a565b91505092915050565b60008135905061061681610c00565b92915050565b600080600080600060a0868803121561063457600080fd5b6000610642888289016105c8565b9550506020610653888289016105c8565b945050604061066488828901610607565b935050606086013567ffffffffffffffff81111561068157600080fd5b61068d888289016105dd565b925050608086013567ffffffffffffffff8111156106aa57600080fd5b6106b6888289016105dd565b9150509295509295909350565b60006106cf83836107dc565b905092915050565b6106e081610aa1565b82525050565b6106ef81610a53565b82525050565b6000610700826109a7565b61070a81856109ca565b93508360208202850161071c85610997565b8060005b85811015610758578484038952815161073985826106c3565b9450610744836109bd565b925060208a01995050600181019050610720565b50829750879550505050505092915050565b6000610775826109b2565b61077f81856109db565b935061078f818560208601610ae6565b61079881610bd8565b840191505092915050565b60006107ae826109b2565b6107b881856109ec565b93506107c8818560208601610ae6565b6107d181610bd8565b840191505092915050565b600060c0830160008301516107f460008601826106e6565b50602083015161080760208601826106e6565b50604083015161081a604086018261086c565b5060608301518482036060860152610832828261076a565b9150506080830151610847608086018261086c565b5060a083015184820360a086015261085f828261076a565b9150508091505092915050565b61087581610a97565b82525050565b61088481610a97565b82525050565b600060c08201905061089f60008301896106d7565b6108ac60208301886106d7565b6108b9604083018761087b565b81810360608301526108cb81866107a3565b90506108da608083018561087b565b81810360a08301526108ec81846107a3565b9050979650505050505050565b6000602082019050818103600083015261091381846106f5565b905092915050565b6000602082019050610930600083018461087b565b92915050565b6000604051905081810181811067ffffffffffffffff8211171561095d5761095c610ba9565b5b8060405250919050565b600067ffffffffffffffff82111561098257610981610ba9565b5b601f19601f8301169050602081019050919050565b6000819050602082019050919050565b600081519050919050565b600081519050919050565b6000602082019050919050565b600082825260208201905092915050565b600082825260208201905092915050565b600082825260208201905092915050565b6000610a0882610a97565b9150610a1383610a97565b9250827fffffffffffffffffffffffffffffffffffffffffffffffffffffffffffffffff03821115610a4857610a47610b4b565b5b828201905092915050565b6000610a5e82610a77565b9050919050565b6000610a7082610a77565b9050919050565b600073ffffffffffffffffffffffffffffffffffffffff82169050919050565b6000819050919050565b6000610aac82610ab3565b9050919050565b6000610abe82610ac5565b9050919050565b6000610ad082610a77565b9050919050565b82818337600083830152505050565b60005b83811015610b04578082015181840152602081019050610ae9565b83811115610b13576000848401525b50505050565b60006002820490506001821680610b3157607f821691505b60208210811415610b4557610b44610b7a565b5b50919050565b7f4e487b7100000000000000000000000000000000000000000000000000000000600052601160045260246000fd5b7f4e487b7100000000000000000000000000000000000000000000000000000000600052602260045260246000fd5b7f4e487b7100000000000000000000000000000000000000000000000000000000600052604160045260246000fd5b6000601f19601f8301169050919050565b610bf281610a65565b8114610bfd57600080fd5b50565b610c0981610a97565b8114610c1457600080fd5b5056fea26469706673582212200fff431a38cf7f954e6e4eab14d89b79c5fb246e3be4a738a7a6b81a2c2bc5e764736f6c63430008000033",
    "linkReferences": {},
    "deployedLinkReferences": {}
}